{
  "contractName": "Hospital",
  "abi": [
    {
      "anonymous": false,
      "inputs": [
        {
          "indexed": false,
          "internalType": "string",
          "name": "patListCollectionId",
          "type": "string"
        }
      ],
      "name": "getPatientList",
      "type": "event"
    },
    {
      "anonymous": false,
      "inputs": [
        {
          "indexed": false,
          "internalType": "bool",
          "name": "hasLoggedIn",
          "type": "bool"
        }
      ],
      "name": "loggedInStatus",
      "type": "event"
    },
    {
      "inputs": [
        {
          "internalType": "address",
          "name": "docAdd",
          "type": "address"
        }
      ],
      "name": "giveAccessToDoc",
      "outputs": [],
      "stateMutability": "nonpayable",
      "type": "function"
    },
    {
      "inputs": [
        {
          "internalType": "address",
          "name": "pat_key",
          "type": "address"
        }
      ],
      "name": "getCollectionId",
      "outputs": [
        {
          "internalType": "string",
          "name": "",
          "type": "string"
        }
      ],
      "stateMutability": "view",
      "type": "function",
      "constant": true
    },
    {
      "inputs": [
        {
          "internalType": "address",
          "name": "pat_add",
          "type": "address"
        },
        {
          "internalType": "string",
          "name": "key",
          "type": "string"
        }
      ],
      "name": "assignCollectionId",
      "outputs": [],
      "stateMutability": "nonpayable",
      "type": "function"
    },
    {
      "inputs": [
        {
          "internalType": "string",
          "name": "_name",
          "type": "string"
        },
        {
          "internalType": "string",
          "name": "_license",
          "type": "string"
        },
        {
          "internalType": "string",
          "name": "_collectionId",
          "type": "string"
        }
      ],
      "name": "signupHospital",
      "outputs": [],
      "stateMutability": "nonpayable",
      "type": "function"
    },
    {
      "inputs": [],
      "name": "LoginLogoutHos",
      "outputs": [],
      "stateMutability": "nonpayable",
      "type": "function"
    },
    {
      "inputs": [],
      "name": "read",
      "outputs": [
        {
          "internalType": "uint256",
          "name": "",
          "type": "uint256"
        }
      ],
      "stateMutability": "view",
      "type": "function",
      "constant": true
    },
    {
      "inputs": [
        {
          "internalType": "uint256",
          "name": "newValue",
          "type": "uint256"
        }
      ],
      "name": "write",
      "outputs": [],
      "stateMutability": "nonpayable",
      "type": "function"
    }
  ],
  "bytecode": "0x608060405234801561001057600080fd5b50611934806100206000396000f3fe608060405234801561001057600080fd5b506004361061007d5760003560e01c806357de26a41161005b57806357de26a4146100ea578063a5ed8a5c14610108578063b1af6b8814610124578063bfa417a51461012e5761007d565b806315efdbbb146100825780632f048afa146100b25780633a67e72c146100ce575b600080fd5b61009c6004803603810190610097919061114d565b61014a565b6040516100a9919061120a565b60405180910390f35b6100cc60048036038101906100c79190611262565b6104fa565b005b6100e860048036038101906100e391906113c4565b610504565b005b6100f26108a9565b6040516100ff919061142f565b60405180910390f35b610122600480360381019061011d919061144a565b6108b2565b005b61012c610c57565b005b6101486004803603810190610143919061114d565b611056565b005b6060336000600160008373ffffffffffffffffffffffffffffffffffffffff1673ffffffffffffffffffffffffffffffffffffffff1681526020019081526020016000206040518060600160405290816000820180546101a990611520565b80601f01602080910402602001604051908101604052809291908181526020018280546101d590611520565b80156102225780601f106101f757610100808354040283529160200191610222565b820191906000526020600020905b81548152906001019060200180831161020557829003601f168201915b505050505081526020016001820160009054906101000a900473ffffffffffffffffffffffffffffffffffffffff1673ffffffffffffffffffffffffffffffffffffffff1673ffffffffffffffffffffffffffffffffffffffff16815260200160028201805461029190611520565b80601f01602080910402602001604051908101604052809291908181526020018280546102bd90611520565b801561030a5780601f106102df5761010080835404028352916020019161030a565b820191906000526020600020905b8154815290600101906020018083116102ed57829003601f168201915b5050505050815250509050600073ffffffffffffffffffffffffffffffffffffffff16816020015173ffffffffffffffffffffffffffffffffffffffff161161035257600080fd5b600360008573ffffffffffffffffffffffffffffffffffffffff1673ffffffffffffffffffffffffffffffffffffffff168152602001908152602001600020805461039c90611520565b80601f01602080910402602001604051908101604052809291908181526020018280546103c890611520565b80156104155780601f106103ea57610100808354040283529160200191610415565b820191906000526020600020905b8154815290600101906020018083116103f857829003601f168201915b5050505050600081511161042857600080fd5b600360008673ffffffffffffffffffffffffffffffffffffffff1673ffffffffffffffffffffffffffffffffffffffff168152602001908152602001600020805461047290611520565b80601f016020809104026020016040519081016040528092919081815260200182805461049e90611520565b80156104eb5780601f106104c0576101008083540402835291602001916104eb565b820191906000526020600020905b8154815290600101906020018083116104ce57829003601f168201915b50505050509350505050919050565b8060008190555050565b336000600160008373ffffffffffffffffffffffffffffffffffffffff1673ffffffffffffffffffffffffffffffffffffffff16815260200190815260200160002060405180606001604052908160008201805461056190611520565b80601f016020809104026020016040519081016040528092919081815260200182805461058d90611520565b80156105da5780601f106105af576101008083540402835291602001916105da565b820191906000526020600020905b8154815290600101906020018083116105bd57829003601f168201915b505050505081526020016001820160009054906101000a900473ffffffffffffffffffffffffffffffffffffffff1673ffffffffffffffffffffffffffffffffffffffff1673ffffffffffffffffffffffffffffffffffffffff16815260200160028201805461064990611520565b80601f016020809104026020016040519081016040528092919081815260200182805461067590611520565b80156106c25780601f10610697576101008083540402835291602001916106c2565b820191906000526020600020905b8154815290600101906020018083116106a557829003601f168201915b5050505050815250509050600073ffffffffffffffffffffffffffffffffffffffff16816020015173ffffffffffffffffffffffffffffffffffffffff161161070a57600080fd5b600360008573ffffffffffffffffffffffffffffffffffffffff1673ffffffffffffffffffffffffffffffffffffffff168152602001908152602001600020805461075490611520565b80601f016020809104026020016040519081016040528092919081815260200182805461078090611520565b80156107cd5780601f106107a2576101008083540402835291602001916107cd565b820191906000526020600020905b8154815290600101906020018083116107b057829003601f168201915b505050505060008151146107e057600080fd5b83600360008773ffffffffffffffffffffffffffffffffffffffff1673ffffffffffffffffffffffffffffffffffffffff168152602001908152602001600020908161082c91906116fd565b507f91c12f76d6c21e93b48d52a18f84313c2b032d428ba20f230714373166b2cfac600560003373ffffffffffffffffffffffffffffffffffffffff1673ffffffffffffffffffffffffffffffffffffffff16815260200190815260200160002060405161089a9190611853565b60405180910390a15050505050565b60008054905090565b6000600160003373ffffffffffffffffffffffffffffffffffffffff1673ffffffffffffffffffffffffffffffffffffffff16815260200190815260200160002060405180606001604052908160008201805461090e90611520565b80601f016020809104026020016040519081016040528092919081815260200182805461093a90611520565b80156109875780601f1061095c57610100808354040283529160200191610987565b820191906000526020600020905b81548152906001019060200180831161096a57829003601f168201915b505050505081526020016001820160009054906101000a900473ffffffffffffffffffffffffffffffffffffffff1673ffffffffffffffffffffffffffffffffffffffff1673ffffffffffffffffffffffffffffffffffffffff1681526020016002820180546109f690611520565b80601f0160208091040260200160405190810160405280929190818152602001828054610a2290611520565b8015610a6f5780601f10610a4457610100808354040283529160200191610a6f565b820191906000526020600020905b815481529060010190602001808311610a5257829003601f168201915b50505050508152505090507fc5d2460186f7233c927e7db2dcc703c0e500b653ca82273b7bfad8045d85a47084604051602001610aac91906118b1565b6040516020818303038152906040528051906020012003610acc57600080fd5b7fc5d2460186f7233c927e7db2dcc703c0e500b653ca82273b7bfad8045d85a47083604051602001610afe91906118b1565b6040516020818303038152906040528051906020012003610b1e57600080fd5b60405180606001604052808581526020013373ffffffffffffffffffffffffffffffffffffffff16815260200184815250600160003373ffffffffffffffffffffffffffffffffffffffff1673ffffffffffffffffffffffffffffffffffffffff1681526020019081526020016000206000820151816000019081610ba391906116fd565b5060208201518160010160006101000a81548173ffffffffffffffffffffffffffffffffffffffff021916908373ffffffffffffffffffffffffffffffffffffffff1602179055506040820151816002019081610c0091906116fd565b5090505081600560003373ffffffffffffffffffffffffffffffffffffffff1673ffffffffffffffffffffffffffffffffffffffff1681526020019081526020016000209081610c5091906116fd565b5050505050565b336000600160008373ffffffffffffffffffffffffffffffffffffffff1673ffffffffffffffffffffffffffffffffffffffff168152602001908152602001600020604051806060016040529081600082018054610cb490611520565b80601f0160208091040260200160405190810160405280929190818152602001828054610ce090611520565b8015610d2d5780601f10610d0257610100808354040283529160200191610d2d565b820191906000526020600020905b815481529060010190602001808311610d1057829003601f168201915b505050505081526020016001820160009054906101000a900473ffffffffffffffffffffffffffffffffffffffff1673ffffffffffffffffffffffffffffffffffffffff1673ffffffffffffffffffffffffffffffffffffffff168152602001600282018054610d9c90611520565b80601f0160208091040260200160405190810160405280929190818152602001828054610dc890611520565b8015610e155780601f10610dea57610100808354040283529160200191610e15565b820191906000526020600020905b815481529060010190602001808311610df857829003601f168201915b5050505050815250509050600073ffffffffffffffffffffffffffffffffffffffff16816020015173ffffffffffffffffffffffffffffffffffffffff1611610e5d57600080fd5b600460003373ffffffffffffffffffffffffffffffffffffffff1673ffffffffffffffffffffffffffffffffffffffff16815260200190815260200160002060009054906101000a900460ff1615600460003373ffffffffffffffffffffffffffffffffffffffff1673ffffffffffffffffffffffffffffffffffffffff16815260200190815260200160002060006101000a81548160ff02191690831515021790555060011515600460003373ffffffffffffffffffffffffffffffffffffffff1673ffffffffffffffffffffffffffffffffffffffff16815260200190815260200160002060009054906101000a900460ff16151503610fcf577f91c12f76d6c21e93b48d52a18f84313c2b032d428ba20f230714373166b2cfac600560003373ffffffffffffffffffffffffffffffffffffffff1673ffffffffffffffffffffffffffffffffffffffff168152602001908152602001600020604051610fc69190611853565b60405180910390a15b7fe2b11a80c567df3381992abfd7bf94815a8389dfda9aabf303fa4b8ab7e04d86600460003373ffffffffffffffffffffffffffffffffffffffff1673ffffffffffffffffffffffffffffffffffffffff16815260200190815260200160002060009054906101000a900460ff1660405161104a91906118e3565b60405180910390a15050565b6001600260003373ffffffffffffffffffffffffffffffffffffffff1673ffffffffffffffffffffffffffffffffffffffff16815260200190815260200160002060008373ffffffffffffffffffffffffffffffffffffffff1673ffffffffffffffffffffffffffffffffffffffff1681526020019081526020016000208190555050565b6000604051905090565b600080fd5b600080fd5b600073ffffffffffffffffffffffffffffffffffffffff82169050919050565b600061111a826110ef565b9050919050565b61112a8161110f565b811461113557600080fd5b50565b60008135905061114781611121565b92915050565b600060208284031215611163576111626110e5565b5b600061117184828501611138565b91505092915050565b600081519050919050565b600082825260208201905092915050565b60005b838110156111b4578082015181840152602081019050611199565b60008484015250505050565b6000601f19601f8301169050919050565b60006111dc8261117a565b6111e68185611185565b93506111f6818560208601611196565b6111ff816111c0565b840191505092915050565b6000602082019050818103600083015261122481846111d1565b905092915050565b6000819050919050565b61123f8161122c565b811461124a57600080fd5b50565b60008135905061125c81611236565b92915050565b600060208284031215611278576112776110e5565b5b60006112868482850161124d565b91505092915050565b600080fd5b600080fd5b7f4e487b7100000000000000000000000000000000000000000000000000000000600052604160045260246000fd5b6112d1826111c0565b810181811067ffffffffffffffff821117156112f0576112ef611299565b5b80604052505050565b60006113036110db565b905061130f82826112c8565b919050565b600067ffffffffffffffff82111561132f5761132e611299565b5b611338826111c0565b9050602081019050919050565b82818337600083830152505050565b600061136761136284611314565b6112f9565b90508281526020810184848401111561138357611382611294565b5b61138e848285611345565b509392505050565b600082601f8301126113ab576113aa61128f565b5b81356113bb848260208601611354565b91505092915050565b600080604083850312156113db576113da6110e5565b5b60006113e985828601611138565b925050602083013567ffffffffffffffff81111561140a576114096110ea565b5b61141685828601611396565b9150509250929050565b6114298161122c565b82525050565b60006020820190506114446000830184611420565b92915050565b600080600060608486031215611463576114626110e5565b5b600084013567ffffffffffffffff811115611481576114806110ea565b5b61148d86828701611396565b935050602084013567ffffffffffffffff8111156114ae576114ad6110ea565b5b6114ba86828701611396565b925050604084013567ffffffffffffffff8111156114db576114da6110ea565b5b6114e786828701611396565b9150509250925092565b7f4e487b7100000000000000000000000000000000000000000000000000000000600052602260045260246000fd5b6000600282049050600182168061153857607f821691505b60208210810361154b5761154a6114f1565b5b50919050565b60008190508160005260206000209050919050565b60006020601f8301049050919050565b600082821b905092915050565b6000600883026115b37fffffffffffffffffffffffffffffffffffffffffffffffffffffffffffffffff82611576565b6115bd8683611576565b95508019841693508086168417925050509392505050565b6000819050919050565b60006115fa6115f56115f08461122c565b6115d5565b61122c565b9050919050565b6000819050919050565b611614836115df565b61162861162082611601565b848454611583565b825550505050565b600090565b61163d611630565b61164881848461160b565b505050565b5b8181101561166c57611661600082611635565b60018101905061164e565b5050565b601f8211156116b15761168281611551565b61168b84611566565b8101602085101561169a578190505b6116ae6116a685611566565b83018261164d565b50505b505050565b600082821c905092915050565b60006116d4600019846008026116b6565b1980831691505092915050565b60006116ed83836116c3565b9150826002028217905092915050565b6117068261117a565b67ffffffffffffffff81111561171f5761171e611299565b5b6117298254611520565b611734828285611670565b600060209050601f8311600181146117675760008415611755578287015190505b61175f85826116e1565b8655506117c7565b601f19841661177586611551565b60005b8281101561179d57848901518255600182019150602085019450602081019050611778565b868310156117ba57848901516117b6601f8916826116c3565b8355505b6001600288020188555050505b505050505050565b600081546117dc81611520565b6117e68186611185565b9450600182166000811461180157600181146118175761184a565b60ff19831686528115156020028601935061184a565b61182085611551565b60005b8381101561184257815481890152600182019150602081019050611823565b808801955050505b50505092915050565b6000602082019050818103600083015261186d81846117cf565b905092915050565b600081905092915050565b600061188b8261117a565b6118958185611875565b93506118a5818560208601611196565b80840191505092915050565b60006118bd8284611880565b915081905092915050565b60008115159050919050565b6118dd816118c8565b82525050565b60006020820190506118f860008301846118d4565b9291505056fea26469706673582212201188d5acd3330804841371817d2d970cceaa86a8382672db4f6142336ebb81ca64736f6c63430008110033",
  "immutableReferences": {},
  "source": "// SPDX-License-Identifier: MIT\r\npragma solidity >=0.4.22 <0.9.0;\r\n\r\ncontract Hospital {\r\n    uint256 value;\r\n    struct hospitalIdentity {\r\n        string name;\r\n        address id;\r\n        string license;\r\n    }\r\n\r\n    mapping (address=>hospitalIdentity) mapAddressToHospital;\r\n    mapping (address => mapping(address=>uint))giveAccess;\r\n    mapping(address => string) patientToCollectionId;\r\n      mapping (address=>bool) isLoggedIn;\r\n    mapping (address => string) listOfPatients;\r\n      event loggedInStatus(bool hasLoggedIn);\r\n     event getPatientList(string patListCollectionId);\r\n    modifier checkIsApprovedOfAccess(address id) {\r\n        hospitalIdentity memory d =  mapAddressToHospital[id];\r\n        require(d.id > address(0x0)); //check if hospital exist\r\n        _;\r\n    }\r\n \r\n    modifier checkIfCollectionExists(string memory id)\r\n    {\r\n        require(bytes(id).length>0);\r\n        _;\r\n    }\r\n    modifier checkIfCollectionDoesntExists(string memory id)\r\n    {\r\n        require(bytes(id).length==0);\r\n        _;\r\n    }\r\n    \r\n    function giveAccessToDoc(address docAdd) public {\r\n           giveAccess[msg.sender][docAdd]=1;\r\n    }\r\n    function getCollectionId(address pat_key)\r\n        public\r\n        view\r\n        checkIsApprovedOfAccess(msg.sender)\r\n        checkIfCollectionExists(patientToCollectionId[pat_key])\r\n        returns (\r\n            string memory\r\n        )\r\n    {\r\n        return (patientToCollectionId[pat_key]);\r\n    }\r\n\r\n    function assignCollectionId(address pat_add,string memory key)\r\n        public\r\n        checkIsApprovedOfAccess(msg.sender)\r\n        checkIfCollectionDoesntExists(patientToCollectionId[pat_add])\r\n    {\r\n       patientToCollectionId[pat_add] =key;\r\n       emit getPatientList(listOfPatients[msg.sender]);\r\n    }\r\n   \r\n      function signupHospital(\r\n        string memory _name, string memory _license,string memory _collectionId\r\n    ) public {\r\n        hospitalIdentity memory p =mapAddressToHospital[msg.sender];\r\n        require(keccak256(abi.encodePacked(_name)) != keccak256(\"\"));\r\n        require(keccak256(abi.encodePacked(_license)) != keccak256(\"\"));\r\n        mapAddressToHospital[msg.sender] = hospitalIdentity({\r\n            name: _name,\r\n            license:_license,\r\n            id: msg.sender\r\n        });\r\n      listOfPatients[msg.sender]=_collectionId;\r\n    }\r\n    function LoginLogoutHos() public  checkIsApprovedOfAccess(msg.sender) {\r\n               \r\n         isLoggedIn[msg.sender]=!isLoggedIn[msg.sender];\r\n         if( isLoggedIn[msg.sender] == true)\r\n         {\r\n               emit getPatientList(listOfPatients[msg.sender]);\r\n         }\r\n         emit loggedInStatus(isLoggedIn[msg.sender]);    \r\n    }\r\n    function read() public view returns (uint256) {\r\n        return value;\r\n    }\r\n\r\n    function write(uint256 newValue) public {\r\n        value = newValue;\r\n    }\r\n}\r\n\r\n",
  "sourcePath": "D:\\StartFlutter\\flutter_application_1\\contracts\\Hospital.sol",
  "compiler": {
    "name": "solc",
    "version": "0.8.17+commit.8df45f5f.Emscripten.clang"
  },
  "schemaVersion": "3.4.11",
  "updatedAt": "2023-07-11T04:52:02.297Z",
  "networkType": "ethereum",
  "devdoc": {
    "kind": "dev",
    "methods": {},
    "version": 1
  },
  "userdoc": {
    "kind": "user",
    "methods": {},
    "version": 1
  }
}