{
  "contractName": "Hospital",
  "abi": [
    {
      "anonymous": false,
      "inputs": [
        {
          "indexed": false,
          "internalType": "string",
          "name": "patListCollectionId",
          "type": "string"
        }
      ],
      "name": "getPatientList",
      "type": "event"
    },
    {
      "anonymous": false,
      "inputs": [
        {
          "indexed": false,
          "internalType": "bool",
          "name": "hasLoggedIn",
          "type": "bool"
        }
      ],
      "name": "loggedInStatus",
      "type": "event"
    },
    {
      "inputs": [
        {
          "internalType": "address",
          "name": "pat_key",
          "type": "address"
        }
      ],
      "name": "getCollectionId",
      "outputs": [
        {
          "internalType": "string",
          "name": "",
          "type": "string"
        }
      ],
      "stateMutability": "view",
      "type": "function",
      "constant": true
    },
    {
      "inputs": [
        {
          "internalType": "address",
          "name": "pat_add",
          "type": "address"
        },
        {
          "internalType": "string",
          "name": "key",
          "type": "string"
        }
      ],
      "name": "assignCollectionId",
      "outputs": [],
      "stateMutability": "nonpayable",
      "type": "function"
    },
    {
      "inputs": [
        {
          "internalType": "string",
          "name": "_name",
          "type": "string"
        },
        {
          "internalType": "string",
          "name": "_license",
          "type": "string"
        },
        {
          "internalType": "string",
          "name": "_collectionId",
          "type": "string"
        }
      ],
      "name": "signupHospital",
      "outputs": [],
      "stateMutability": "nonpayable",
      "type": "function"
    },
    {
      "inputs": [],
      "name": "LoginLogoutHos",
      "outputs": [],
      "stateMutability": "nonpayable",
      "type": "function"
    },
    {
      "inputs": [],
      "name": "read",
      "outputs": [
        {
          "internalType": "uint256",
          "name": "",
          "type": "uint256"
        }
      ],
      "stateMutability": "view",
      "type": "function",
      "constant": true
    },
    {
      "inputs": [
        {
          "internalType": "uint256",
          "name": "newValue",
          "type": "uint256"
        }
      ],
      "name": "write",
      "outputs": [],
      "stateMutability": "nonpayable",
      "type": "function"
    }
  ],
  "bytecode": "0x608060405234801561001057600080fd5b50611878806100206000396000f3fe608060405234801561001057600080fd5b50600436106100625760003560e01c806315efdbbb146100675780632f048afa146100975780633a67e72c146100b357806357de26a4146100cf578063a5ed8a5c146100ed578063b1af6b8814610109575b600080fd5b610081600480360381019061007c9190611091565b610113565b60405161008e919061114e565b60405180910390f35b6100b160048036038101906100ac91906111a6565b6104c3565b005b6100cd60048036038101906100c89190611308565b6104cd565b005b6100d7610872565b6040516100e49190611373565b60405180910390f35b6101076004803603810190610102919061138e565b61087b565b005b610111610c20565b005b6060336000600160008373ffffffffffffffffffffffffffffffffffffffff1673ffffffffffffffffffffffffffffffffffffffff16815260200190815260200160002060405180606001604052908160008201805461017290611464565b80601f016020809104026020016040519081016040528092919081815260200182805461019e90611464565b80156101eb5780601f106101c0576101008083540402835291602001916101eb565b820191906000526020600020905b8154815290600101906020018083116101ce57829003601f168201915b505050505081526020016001820160009054906101000a900473ffffffffffffffffffffffffffffffffffffffff1673ffffffffffffffffffffffffffffffffffffffff1673ffffffffffffffffffffffffffffffffffffffff16815260200160028201805461025a90611464565b80601f016020809104026020016040519081016040528092919081815260200182805461028690611464565b80156102d35780601f106102a8576101008083540402835291602001916102d3565b820191906000526020600020905b8154815290600101906020018083116102b657829003601f168201915b5050505050815250509050600073ffffffffffffffffffffffffffffffffffffffff16816020015173ffffffffffffffffffffffffffffffffffffffff161161031b57600080fd5b600260008573ffffffffffffffffffffffffffffffffffffffff1673ffffffffffffffffffffffffffffffffffffffff168152602001908152602001600020805461036590611464565b80601f016020809104026020016040519081016040528092919081815260200182805461039190611464565b80156103de5780601f106103b3576101008083540402835291602001916103de565b820191906000526020600020905b8154815290600101906020018083116103c157829003601f168201915b505050505060008151116103f157600080fd5b600260008673ffffffffffffffffffffffffffffffffffffffff1673ffffffffffffffffffffffffffffffffffffffff168152602001908152602001600020805461043b90611464565b80601f016020809104026020016040519081016040528092919081815260200182805461046790611464565b80156104b45780601f10610489576101008083540402835291602001916104b4565b820191906000526020600020905b81548152906001019060200180831161049757829003601f168201915b50505050509350505050919050565b8060008190555050565b336000600160008373ffffffffffffffffffffffffffffffffffffffff1673ffffffffffffffffffffffffffffffffffffffff16815260200190815260200160002060405180606001604052908160008201805461052a90611464565b80601f016020809104026020016040519081016040528092919081815260200182805461055690611464565b80156105a35780601f10610578576101008083540402835291602001916105a3565b820191906000526020600020905b81548152906001019060200180831161058657829003601f168201915b505050505081526020016001820160009054906101000a900473ffffffffffffffffffffffffffffffffffffffff1673ffffffffffffffffffffffffffffffffffffffff1673ffffffffffffffffffffffffffffffffffffffff16815260200160028201805461061290611464565b80601f016020809104026020016040519081016040528092919081815260200182805461063e90611464565b801561068b5780601f106106605761010080835404028352916020019161068b565b820191906000526020600020905b81548152906001019060200180831161066e57829003601f168201915b5050505050815250509050600073ffffffffffffffffffffffffffffffffffffffff16816020015173ffffffffffffffffffffffffffffffffffffffff16116106d357600080fd5b600260008573ffffffffffffffffffffffffffffffffffffffff1673ffffffffffffffffffffffffffffffffffffffff168152602001908152602001600020805461071d90611464565b80601f016020809104026020016040519081016040528092919081815260200182805461074990611464565b80156107965780601f1061076b57610100808354040283529160200191610796565b820191906000526020600020905b81548152906001019060200180831161077957829003601f168201915b505050505060008151146107a957600080fd5b83600260008773ffffffffffffffffffffffffffffffffffffffff1673ffffffffffffffffffffffffffffffffffffffff16815260200190815260200160002090816107f59190611641565b507f91c12f76d6c21e93b48d52a18f84313c2b032d428ba20f230714373166b2cfac600460003373ffffffffffffffffffffffffffffffffffffffff1673ffffffffffffffffffffffffffffffffffffffff1681526020019081526020016000206040516108639190611797565b60405180910390a15050505050565b60008054905090565b6000600160003373ffffffffffffffffffffffffffffffffffffffff1673ffffffffffffffffffffffffffffffffffffffff1681526020019081526020016000206040518060600160405290816000820180546108d790611464565b80601f016020809104026020016040519081016040528092919081815260200182805461090390611464565b80156109505780601f1061092557610100808354040283529160200191610950565b820191906000526020600020905b81548152906001019060200180831161093357829003601f168201915b505050505081526020016001820160009054906101000a900473ffffffffffffffffffffffffffffffffffffffff1673ffffffffffffffffffffffffffffffffffffffff1673ffffffffffffffffffffffffffffffffffffffff1681526020016002820180546109bf90611464565b80601f01602080910402602001604051908101604052809291908181526020018280546109eb90611464565b8015610a385780601f10610a0d57610100808354040283529160200191610a38565b820191906000526020600020905b815481529060010190602001808311610a1b57829003601f168201915b50505050508152505090507fc5d2460186f7233c927e7db2dcc703c0e500b653ca82273b7bfad8045d85a47084604051602001610a7591906117f5565b6040516020818303038152906040528051906020012003610a9557600080fd5b7fc5d2460186f7233c927e7db2dcc703c0e500b653ca82273b7bfad8045d85a47083604051602001610ac791906117f5565b6040516020818303038152906040528051906020012003610ae757600080fd5b60405180606001604052808581526020013373ffffffffffffffffffffffffffffffffffffffff16815260200184815250600160003373ffffffffffffffffffffffffffffffffffffffff1673ffffffffffffffffffffffffffffffffffffffff1681526020019081526020016000206000820151816000019081610b6c9190611641565b5060208201518160010160006101000a81548173ffffffffffffffffffffffffffffffffffffffff021916908373ffffffffffffffffffffffffffffffffffffffff1602179055506040820151816002019081610bc99190611641565b5090505081600460003373ffffffffffffffffffffffffffffffffffffffff1673ffffffffffffffffffffffffffffffffffffffff1681526020019081526020016000209081610c199190611641565b5050505050565b336000600160008373ffffffffffffffffffffffffffffffffffffffff1673ffffffffffffffffffffffffffffffffffffffff168152602001908152602001600020604051806060016040529081600082018054610c7d90611464565b80601f0160208091040260200160405190810160405280929190818152602001828054610ca990611464565b8015610cf65780601f10610ccb57610100808354040283529160200191610cf6565b820191906000526020600020905b815481529060010190602001808311610cd957829003601f168201915b505050505081526020016001820160009054906101000a900473ffffffffffffffffffffffffffffffffffffffff1673ffffffffffffffffffffffffffffffffffffffff1673ffffffffffffffffffffffffffffffffffffffff168152602001600282018054610d6590611464565b80601f0160208091040260200160405190810160405280929190818152602001828054610d9190611464565b8015610dde5780601f10610db357610100808354040283529160200191610dde565b820191906000526020600020905b815481529060010190602001808311610dc157829003601f168201915b5050505050815250509050600073ffffffffffffffffffffffffffffffffffffffff16816020015173ffffffffffffffffffffffffffffffffffffffff1611610e2657600080fd5b600360003373ffffffffffffffffffffffffffffffffffffffff1673ffffffffffffffffffffffffffffffffffffffff16815260200190815260200160002060009054906101000a900460ff1615600360003373ffffffffffffffffffffffffffffffffffffffff1673ffffffffffffffffffffffffffffffffffffffff16815260200190815260200160002060006101000a81548160ff02191690831515021790555060011515600360003373ffffffffffffffffffffffffffffffffffffffff1673ffffffffffffffffffffffffffffffffffffffff16815260200190815260200160002060009054906101000a900460ff16151503610f98577f91c12f76d6c21e93b48d52a18f84313c2b032d428ba20f230714373166b2cfac600460003373ffffffffffffffffffffffffffffffffffffffff1673ffffffffffffffffffffffffffffffffffffffff168152602001908152602001600020604051610f8f9190611797565b60405180910390a15b7fe2b11a80c567df3381992abfd7bf94815a8389dfda9aabf303fa4b8ab7e04d86600360003373ffffffffffffffffffffffffffffffffffffffff1673ffffffffffffffffffffffffffffffffffffffff16815260200190815260200160002060009054906101000a900460ff166040516110139190611827565b60405180910390a15050565b6000604051905090565b600080fd5b600080fd5b600073ffffffffffffffffffffffffffffffffffffffff82169050919050565b600061105e82611033565b9050919050565b61106e81611053565b811461107957600080fd5b50565b60008135905061108b81611065565b92915050565b6000602082840312156110a7576110a6611029565b5b60006110b58482850161107c565b91505092915050565b600081519050919050565b600082825260208201905092915050565b60005b838110156110f85780820151818401526020810190506110dd565b60008484015250505050565b6000601f19601f8301169050919050565b6000611120826110be565b61112a81856110c9565b935061113a8185602086016110da565b61114381611104565b840191505092915050565b600060208201905081810360008301526111688184611115565b905092915050565b6000819050919050565b61118381611170565b811461118e57600080fd5b50565b6000813590506111a08161117a565b92915050565b6000602082840312156111bc576111bb611029565b5b60006111ca84828501611191565b91505092915050565b600080fd5b600080fd5b7f4e487b7100000000000000000000000000000000000000000000000000000000600052604160045260246000fd5b61121582611104565b810181811067ffffffffffffffff82111715611234576112336111dd565b5b80604052505050565b600061124761101f565b9050611253828261120c565b919050565b600067ffffffffffffffff821115611273576112726111dd565b5b61127c82611104565b9050602081019050919050565b82818337600083830152505050565b60006112ab6112a684611258565b61123d565b9050828152602081018484840111156112c7576112c66111d8565b5b6112d2848285611289565b509392505050565b600082601f8301126112ef576112ee6111d3565b5b81356112ff848260208601611298565b91505092915050565b6000806040838503121561131f5761131e611029565b5b600061132d8582860161107c565b925050602083013567ffffffffffffffff81111561134e5761134d61102e565b5b61135a858286016112da565b9150509250929050565b61136d81611170565b82525050565b60006020820190506113886000830184611364565b92915050565b6000806000606084860312156113a7576113a6611029565b5b600084013567ffffffffffffffff8111156113c5576113c461102e565b5b6113d1868287016112da565b935050602084013567ffffffffffffffff8111156113f2576113f161102e565b5b6113fe868287016112da565b925050604084013567ffffffffffffffff81111561141f5761141e61102e565b5b61142b868287016112da565b9150509250925092565b7f4e487b7100000000000000000000000000000000000000000000000000000000600052602260045260246000fd5b6000600282049050600182168061147c57607f821691505b60208210810361148f5761148e611435565b5b50919050565b60008190508160005260206000209050919050565b60006020601f8301049050919050565b600082821b905092915050565b6000600883026114f77fffffffffffffffffffffffffffffffffffffffffffffffffffffffffffffffff826114ba565b61150186836114ba565b95508019841693508086168417925050509392505050565b6000819050919050565b600061153e61153961153484611170565b611519565b611170565b9050919050565b6000819050919050565b61155883611523565b61156c61156482611545565b8484546114c7565b825550505050565b600090565b611581611574565b61158c81848461154f565b505050565b5b818110156115b0576115a5600082611579565b600181019050611592565b5050565b601f8211156115f5576115c681611495565b6115cf846114aa565b810160208510156115de578190505b6115f26115ea856114aa565b830182611591565b50505b505050565b600082821c905092915050565b6000611618600019846008026115fa565b1980831691505092915050565b60006116318383611607565b9150826002028217905092915050565b61164a826110be565b67ffffffffffffffff811115611663576116626111dd565b5b61166d8254611464565b6116788282856115b4565b600060209050601f8311600181146116ab5760008415611699578287015190505b6116a38582611625565b86555061170b565b601f1984166116b986611495565b60005b828110156116e1578489015182556001820191506020850194506020810190506116bc565b868310156116fe57848901516116fa601f891682611607565b8355505b6001600288020188555050505b505050505050565b6000815461172081611464565b61172a81866110c9565b94506001821660008114611745576001811461175b5761178e565b60ff19831686528115156020028601935061178e565b61176485611495565b60005b8381101561178657815481890152600182019150602081019050611767565b808801955050505b50505092915050565b600060208201905081810360008301526117b18184611713565b905092915050565b600081905092915050565b60006117cf826110be565b6117d981856117b9565b93506117e98185602086016110da565b80840191505092915050565b600061180182846117c4565b915081905092915050565b60008115159050919050565b6118218161180c565b82525050565b600060208201905061183c6000830184611818565b9291505056fea2646970667358221220b8387f5a62692823ea26225445d34796b11a7f5f7ab7d67193d270f084229feb64736f6c63430008110033",
  "immutableReferences": {},
  "source": "// SPDX-License-Identifier: MIT\r\npragma solidity >=0.4.22 <0.9.0;\r\n\r\ncontract Hospital {\r\n    uint256 value;\r\n    struct hospitalIdentity {\r\n        string name;\r\n        address id;\r\n        string license;\r\n    }\r\n\r\n    mapping (address=>hospitalIdentity) mapAddressToHospital;\r\n    mapping(address => string) patientToCollectionId;\r\n      mapping (address=>bool) isLoggedIn;\r\n    mapping (address => string) listOfPatients;\r\n      event loggedInStatus(bool hasLoggedIn);\r\n     event getPatientList(string patListCollectionId);\r\n    modifier checkIsApprovedOfAccess(address id) {\r\n        hospitalIdentity memory d =  mapAddressToHospital[id];\r\n        require(d.id > address(0x0)); //check if hospital exist\r\n        _;\r\n    }\r\n\r\n    modifier checkIfCollectionExists(string memory id)\r\n    {\r\n        require(bytes(id).length>0);\r\n        _;\r\n    }\r\n    modifier checkIfCollectionDoesntExists(string memory id)\r\n    {\r\n        require(bytes(id).length==0);\r\n        _;\r\n    }\r\n    \r\n    \r\n    function getCollectionId(address pat_key)\r\n        public\r\n        view\r\n        checkIsApprovedOfAccess(msg.sender)\r\n        checkIfCollectionExists(patientToCollectionId[pat_key])\r\n        returns (\r\n            string memory\r\n        )\r\n    {\r\n        return (patientToCollectionId[pat_key]);\r\n    }\r\n\r\n    function assignCollectionId(address pat_add,string memory key)\r\n        public\r\n        checkIsApprovedOfAccess(msg.sender)\r\n        checkIfCollectionDoesntExists(patientToCollectionId[pat_add])\r\n    {\r\n       patientToCollectionId[pat_add] =key;\r\n       emit getPatientList(listOfPatients[msg.sender]);\r\n    }\r\n   \r\n      function signupHospital(\r\n        string memory _name, string memory _license,string memory _collectionId\r\n    ) public {\r\n        hospitalIdentity memory p =mapAddressToHospital[msg.sender];\r\n        require(keccak256(abi.encodePacked(_name)) != keccak256(\"\"));\r\n        require(keccak256(abi.encodePacked(_license)) != keccak256(\"\"));\r\n        mapAddressToHospital[msg.sender] = hospitalIdentity({\r\n            name: _name,\r\n            license:_license,\r\n            id: msg.sender\r\n        });\r\n      listOfPatients[msg.sender]=_collectionId;\r\n    }\r\n    function LoginLogoutHos() public  checkIsApprovedOfAccess(msg.sender) {\r\n               \r\n         isLoggedIn[msg.sender]=!isLoggedIn[msg.sender];\r\n         if( isLoggedIn[msg.sender] == true)\r\n         {\r\n               emit getPatientList(listOfPatients[msg.sender]);\r\n         }\r\n         emit loggedInStatus(isLoggedIn[msg.sender]);    \r\n    }\r\n    function read() public view returns (uint256) {\r\n        return value;\r\n    }\r\n\r\n    function write(uint256 newValue) public {\r\n        value = newValue;\r\n    }\r\n}\r\n\r\n",
  "sourcePath": "D:\\StartFlutter\\flutter_application_1\\contracts\\Hospital.sol",
  "compiler": {
    "name": "solc",
    "version": "0.8.17+commit.8df45f5f.Emscripten.clang"
  },
  "schemaVersion": "3.4.11",
  "updatedAt": "2023-01-11T17:44:17.173Z",
  "networkType": "ethereum",
  "devdoc": {
    "kind": "dev",
    "methods": {},
    "version": 1
  },
  "userdoc": {
    "kind": "user",
    "methods": {},
    "version": 1
  }
}