{
  "contractName": "Patient",
  "abi": [
    {
      "anonymous": false,
      "inputs": [
        {
          "indexed": false,
          "internalType": "string",
          "name": "collectionOfPatientHistory",
          "type": "string"
        }
      ],
      "name": "givePatientHistory",
      "type": "event"
    },
    {
      "inputs": [],
      "name": "getCollectionId",
      "outputs": [
        {
          "internalType": "string",
          "name": "",
          "type": "string"
        }
      ],
      "stateMutability": "view",
      "type": "function",
      "constant": true
    },
    {
      "inputs": [
        {
          "internalType": "address",
          "name": "hos_id",
          "type": "address"
        }
      ],
      "name": "giveCollectionIdAccess",
      "outputs": [],
      "stateMutability": "nonpayable",
      "type": "function"
    },
    {
      "inputs": [
        {
          "internalType": "address",
          "name": "pat_id",
          "type": "address"
        }
      ],
      "name": "giveCollectionIdAccessForUpdate",
      "outputs": [],
      "stateMutability": "nonpayable",
      "type": "function"
    },
    {
      "inputs": [
        {
          "internalType": "address",
          "name": "pat_id",
          "type": "address"
        }
      ],
      "name": "hasAccess",
      "outputs": [
        {
          "internalType": "bool",
          "name": "",
          "type": "bool"
        }
      ],
      "stateMutability": "view",
      "type": "function",
      "constant": true
    },
    {
      "inputs": [
        {
          "internalType": "string",
          "name": "_name",
          "type": "string"
        },
        {
          "internalType": "uint8",
          "name": "_age",
          "type": "uint8"
        },
        {
          "internalType": "uint8",
          "name": "height",
          "type": "uint8"
        },
        {
          "internalType": "uint8",
          "name": "weight",
          "type": "uint8"
        },
        {
          "internalType": "string",
          "name": "uKey",
          "type": "string"
        }
      ],
      "name": "signupPatient",
      "outputs": [],
      "stateMutability": "nonpayable",
      "type": "function"
    },
    {
      "inputs": [],
      "name": "getPatientInfo",
      "outputs": [
        {
          "internalType": "string",
          "name": "",
          "type": "string"
        },
        {
          "internalType": "address",
          "name": "",
          "type": "address"
        },
        {
          "internalType": "uint256",
          "name": "",
          "type": "uint256"
        },
        {
          "internalType": "string",
          "name": "",
          "type": "string"
        },
        {
          "internalType": "uint256",
          "name": "",
          "type": "uint256"
        },
        {
          "internalType": "uint256",
          "name": "",
          "type": "uint256"
        }
      ],
      "stateMutability": "view",
      "type": "function",
      "constant": true
    },
    {
      "inputs": [],
      "name": "read",
      "outputs": [
        {
          "internalType": "uint256",
          "name": "",
          "type": "uint256"
        }
      ],
      "stateMutability": "view",
      "type": "function",
      "constant": true
    },
    {
      "inputs": [
        {
          "internalType": "uint256",
          "name": "newValue",
          "type": "uint256"
        }
      ],
      "name": "write",
      "outputs": [],
      "stateMutability": "nonpayable",
      "type": "function"
    }
  ],
  "bytecode": "0x608060405234801561001057600080fd5b50611c09806100206000396000f3fe608060405234801561001057600080fd5b50600436106100885760003560e01c806357de26a41161005b57806357de26a41461010457806357e27474146101225780637c8e7bfe1461013e57806395a078e81461015c57610088565b806301c3d4931461008d5780632f048afa146100a9578063326df664146100c557806356faca81146100e8575b600080fd5b6100a760048036038101906100a291906113bb565b61018c565b005b6100c360048036038101906100be919061141e565b61029e565b005b6100cd6102a8565b6040516100df969594939291906114f9565b60405180910390f35b61010260048036038101906100fd91906113bb565b610775565b005b61010c610ae1565b6040516101199190611568565b60405180910390f35b61013c600480360381019061013791906116f1565b610aea565b005b610146610f71565b60405161015391906117a4565b60405180910390f35b610176600480360381019061017191906113bb565b61129f565b60405161018391906117e1565b60405180910390f35b60011515600460008373ffffffffffffffffffffffffffffffffffffffff1673ffffffffffffffffffffffffffffffffffffffff16815260200190815260200160002060003373ffffffffffffffffffffffffffffffffffffffff1673ffffffffffffffffffffffffffffffffffffffff16815260200190815260200160002060009054906101000a900460ff1615151461022657600080fd5b7fb8397ff3ae6391d54a76201a587ba1e35380854d3b5fe0d41dedad523a7ae9f5600360003373ffffffffffffffffffffffffffffffffffffffff1673ffffffffffffffffffffffffffffffffffffffff16815260200190815260200160002060405161029391906118f5565b60405180910390a150565b8060008190555050565b60606000806060600080336000600260008373ffffffffffffffffffffffffffffffffffffffff1673ffffffffffffffffffffffffffffffffffffffff1681526020019081526020016000206040518060c001604052908160008201805461030f9061182b565b80601f016020809104026020016040519081016040528092919081815260200182805461033b9061182b565b80156103885780601f1061035d57610100808354040283529160200191610388565b820191906000526020600020905b81548152906001019060200180831161036b57829003601f168201915b505050505081526020016001820160009054906101000a900460ff1660ff1660ff1681526020016002820180546103be9061182b565b80601f01602080910402602001604051908101604052809291908181526020018280546103ea9061182b565b80156104375780601f1061040c57610100808354040283529160200191610437565b820191906000526020600020905b81548152906001019060200180831161041a57829003601f168201915b505050505081526020016003820160009054906101000a900473ffffffffffffffffffffffffffffffffffffffff1673ffffffffffffffffffffffffffffffffffffffff1673ffffffffffffffffffffffffffffffffffffffff1681526020016003820160149054906101000a900460ff1660ff1660ff1681526020016003820160159054906101000a900460ff1660ff1660ff16815250509050600073ffffffffffffffffffffffffffffffffffffffff16816060015173ffffffffffffffffffffffffffffffffffffffff161161050f57600080fd5b6000600260003373ffffffffffffffffffffffffffffffffffffffff1673ffffffffffffffffffffffffffffffffffffffff1681526020019081526020016000206040518060c001604052908160008201805461056b9061182b565b80601f01602080910402602001604051908101604052809291908181526020018280546105979061182b565b80156105e45780601f106105b9576101008083540402835291602001916105e4565b820191906000526020600020905b8154815290600101906020018083116105c757829003601f168201915b505050505081526020016001820160009054906101000a900460ff1660ff1660ff16815260200160028201805461061a9061182b565b80601f01602080910402602001604051908101604052809291908181526020018280546106469061182b565b80156106935780601f1061066857610100808354040283529160200191610693565b820191906000526020600020905b81548152906001019060200180831161067657829003601f168201915b505050505081526020016003820160009054906101000a900473ffffffffffffffffffffffffffffffffffffffff1673ffffffffffffffffffffffffffffffffffffffff1673ffffffffffffffffffffffffffffffffffffffff1681526020016003820160149054906101000a900460ff1660ff1660ff1681526020016003820160159054906101000a900460ff1660ff1660ff16815250509050806000015181606001518260200151836040015184608001518560a001518360ff1693508160ff1691508060ff169050985098509850985098509850505050909192939495565b336000600260008373ffffffffffffffffffffffffffffffffffffffff1673ffffffffffffffffffffffffffffffffffffffff1681526020019081526020016000206040518060c00160405290816000820180546107d29061182b565b80601f01602080910402602001604051908101604052809291908181526020018280546107fe9061182b565b801561084b5780601f106108205761010080835404028352916020019161084b565b820191906000526020600020905b81548152906001019060200180831161082e57829003601f168201915b505050505081526020016001820160009054906101000a900460ff1660ff1660ff1681526020016002820180546108819061182b565b80601f01602080910402602001604051908101604052809291908181526020018280546108ad9061182b565b80156108fa5780601f106108cf576101008083540402835291602001916108fa565b820191906000526020600020905b8154815290600101906020018083116108dd57829003601f168201915b505050505081526020016003820160009054906101000a900473ffffffffffffffffffffffffffffffffffffffff1673ffffffffffffffffffffffffffffffffffffffff1673ffffffffffffffffffffffffffffffffffffffff1681526020016003820160149054906101000a900460ff1660ff1660ff1681526020016003820160159054906101000a900460ff1660ff1660ff16815250509050600073ffffffffffffffffffffffffffffffffffffffff16816060015173ffffffffffffffffffffffffffffffffffffffff16116109d257600080fd5b6001600460003373ffffffffffffffffffffffffffffffffffffffff1673ffffffffffffffffffffffffffffffffffffffff16815260200190815260200160002060008573ffffffffffffffffffffffffffffffffffffffff1673ffffffffffffffffffffffffffffffffffffffff16815260200190815260200160002060006101000a81548160ff0219169083151502179055507fb8397ff3ae6391d54a76201a587ba1e35380854d3b5fe0d41dedad523a7ae9f5600360003373ffffffffffffffffffffffffffffffffffffffff1673ffffffffffffffffffffffffffffffffffffffff168152602001908152602001600020604051610ad491906118f5565b60405180910390a1505050565b60008054905090565b6000600260003373ffffffffffffffffffffffffffffffffffffffff1673ffffffffffffffffffffffffffffffffffffffff1681526020019081526020016000206040518060c0016040529081600082018054610b469061182b565b80601f0160208091040260200160405190810160405280929190818152602001828054610b729061182b565b8015610bbf5780601f10610b9457610100808354040283529160200191610bbf565b820191906000526020600020905b815481529060010190602001808311610ba257829003601f168201915b505050505081526020016001820160009054906101000a900460ff1660ff1660ff168152602001600282018054610bf59061182b565b80601f0160208091040260200160405190810160405280929190818152602001828054610c219061182b565b8015610c6e5780601f10610c4357610100808354040283529160200191610c6e565b820191906000526020600020905b815481529060010190602001808311610c5157829003601f168201915b505050505081526020016003820160009054906101000a900473ffffffffffffffffffffffffffffffffffffffff1673ffffffffffffffffffffffffffffffffffffffff1673ffffffffffffffffffffffffffffffffffffffff1681526020016003820160149054906101000a900460ff1660ff1660ff1681526020016003820160159054906101000a900460ff1660ff1660ff168152505090507fc5d2460186f7233c927e7db2dcc703c0e500b653ca82273b7bfad8045d85a47086604051602001610d3b9190611953565b6040516020818303038152906040528051906020012003610d5b57600080fd5b60008560ff16118015610d71575060aa8560ff16105b610d7a57600080fd5b600073ffffffffffffffffffffffffffffffffffffffff16816060015173ffffffffffffffffffffffffffffffffffffffff161115610db857600080fd5b81600360003373ffffffffffffffffffffffffffffffffffffffff1673ffffffffffffffffffffffffffffffffffffffff1681526020019081526020016000209081610e049190611b01565b506040518060c001604052808781526020018660ff1681526020018381526020013373ffffffffffffffffffffffffffffffffffffffff1681526020018560ff1681526020018460ff16815250600260003373ffffffffffffffffffffffffffffffffffffffff1673ffffffffffffffffffffffffffffffffffffffff1681526020019081526020016000206000820151816000019081610ea59190611b01565b5060208201518160010160006101000a81548160ff021916908360ff1602179055506040820151816002019081610edc9190611b01565b5060608201518160030160006101000a81548173ffffffffffffffffffffffffffffffffffffffff021916908373ffffffffffffffffffffffffffffffffffffffff16021790555060808201518160030160146101000a81548160ff021916908360ff16021790555060a08201518160030160156101000a81548160ff021916908360ff160217905550905050505050505050565b6060336000600260008373ffffffffffffffffffffffffffffffffffffffff1673ffffffffffffffffffffffffffffffffffffffff1681526020019081526020016000206040518060c0016040529081600082018054610fd09061182b565b80601f0160208091040260200160405190810160405280929190818152602001828054610ffc9061182b565b80156110495780601f1061101e57610100808354040283529160200191611049565b820191906000526020600020905b81548152906001019060200180831161102c57829003601f168201915b505050505081526020016001820160009054906101000a900460ff1660ff1660ff16815260200160028201805461107f9061182b565b80601f01602080910402602001604051908101604052809291908181526020018280546110ab9061182b565b80156110f85780601f106110cd576101008083540402835291602001916110f8565b820191906000526020600020905b8154815290600101906020018083116110db57829003601f168201915b505050505081526020016003820160009054906101000a900473ffffffffffffffffffffffffffffffffffffffff1673ffffffffffffffffffffffffffffffffffffffff1673ffffffffffffffffffffffffffffffffffffffff1681526020016003820160149054906101000a900460ff1660ff1660ff1681526020016003820160159054906101000a900460ff1660ff1660ff16815250509050600073ffffffffffffffffffffffffffffffffffffffff16816060015173ffffffffffffffffffffffffffffffffffffffff16116111d057600080fd5b600360003373ffffffffffffffffffffffffffffffffffffffff1673ffffffffffffffffffffffffffffffffffffffff168152602001908152602001600020805461121a9061182b565b80601f01602080910402602001604051908101604052809291908181526020018280546112469061182b565b80156112935780601f1061126857610100808354040283529160200191611293565b820191906000526020600020905b81548152906001019060200180831161127657829003601f168201915b50505050509250505090565b600060011515600460008473ffffffffffffffffffffffffffffffffffffffff1673ffffffffffffffffffffffffffffffffffffffff16815260200190815260200160002060003373ffffffffffffffffffffffffffffffffffffffff1673ffffffffffffffffffffffffffffffffffffffff16815260200190815260200160002060009054906101000a900460ff1615150361133f5760019050611344565b600090505b919050565b6000604051905090565b600080fd5b600080fd5b600073ffffffffffffffffffffffffffffffffffffffff82169050919050565b60006113888261135d565b9050919050565b6113988161137d565b81146113a357600080fd5b50565b6000813590506113b58161138f565b92915050565b6000602082840312156113d1576113d0611353565b5b60006113df848285016113a6565b91505092915050565b6000819050919050565b6113fb816113e8565b811461140657600080fd5b50565b600081359050611418816113f2565b92915050565b60006020828403121561143457611433611353565b5b600061144284828501611409565b91505092915050565b600081519050919050565b600082825260208201905092915050565b60005b8381101561148557808201518184015260208101905061146a565b60008484015250505050565b6000601f19601f8301169050919050565b60006114ad8261144b565b6114b78185611456565b93506114c7818560208601611467565b6114d081611491565b840191505092915050565b6114e48161137d565b82525050565b6114f3816113e8565b82525050565b600060c082019050818103600083015261151381896114a2565b905061152260208301886114db565b61152f60408301876114ea565b818103606083015261154181866114a2565b905061155060808301856114ea565b61155d60a08301846114ea565b979650505050505050565b600060208201905061157d60008301846114ea565b92915050565b600080fd5b600080fd5b7f4e487b7100000000000000000000000000000000000000000000000000000000600052604160045260246000fd5b6115c582611491565b810181811067ffffffffffffffff821117156115e4576115e361158d565b5b80604052505050565b60006115f7611349565b905061160382826115bc565b919050565b600067ffffffffffffffff8211156116235761162261158d565b5b61162c82611491565b9050602081019050919050565b82818337600083830152505050565b600061165b61165684611608565b6115ed565b90508281526020810184848401111561167757611676611588565b5b611682848285611639565b509392505050565b600082601f83011261169f5761169e611583565b5b81356116af848260208601611648565b91505092915050565b600060ff82169050919050565b6116ce816116b8565b81146116d957600080fd5b50565b6000813590506116eb816116c5565b92915050565b600080600080600060a0868803121561170d5761170c611353565b5b600086013567ffffffffffffffff81111561172b5761172a611358565b5b6117378882890161168a565b9550506020611748888289016116dc565b9450506040611759888289016116dc565b935050606061176a888289016116dc565b925050608086013567ffffffffffffffff81111561178b5761178a611358565b5b6117978882890161168a565b9150509295509295909350565b600060208201905081810360008301526117be81846114a2565b905092915050565b60008115159050919050565b6117db816117c6565b82525050565b60006020820190506117f660008301846117d2565b92915050565b7f4e487b7100000000000000000000000000000000000000000000000000000000600052602260045260246000fd5b6000600282049050600182168061184357607f821691505b602082108103611856576118556117fc565b5b50919050565b60008190508160005260206000209050919050565b6000815461187e8161182b565b6118888186611456565b945060018216600081146118a357600181146118b9576118ec565b60ff1983168652811515602002860193506118ec565b6118c28561185c565b60005b838110156118e4578154818901526001820191506020810190506118c5565b808801955050505b50505092915050565b6000602082019050818103600083015261190f8184611871565b905092915050565b600081905092915050565b600061192d8261144b565b6119378185611917565b9350611947818560208601611467565b80840191505092915050565b600061195f8284611922565b915081905092915050565b60006020601f8301049050919050565b600082821b905092915050565b6000600883026119b77fffffffffffffffffffffffffffffffffffffffffffffffffffffffffffffffff8261197a565b6119c1868361197a565b95508019841693508086168417925050509392505050565b6000819050919050565b60006119fe6119f96119f4846113e8565b6119d9565b6113e8565b9050919050565b6000819050919050565b611a18836119e3565b611a2c611a2482611a05565b848454611987565b825550505050565b600090565b611a41611a34565b611a4c818484611a0f565b505050565b5b81811015611a7057611a65600082611a39565b600181019050611a52565b5050565b601f821115611ab557611a868161185c565b611a8f8461196a565b81016020851015611a9e578190505b611ab2611aaa8561196a565b830182611a51565b50505b505050565b600082821c905092915050565b6000611ad860001984600802611aba565b1980831691505092915050565b6000611af18383611ac7565b9150826002028217905092915050565b611b0a8261144b565b67ffffffffffffffff811115611b2357611b2261158d565b5b611b2d825461182b565b611b38828285611a74565b600060209050601f831160018114611b6b5760008415611b59578287015190505b611b638582611ae5565b865550611bcb565b601f198416611b798661185c565b60005b82811015611ba157848901518255600182019150602085019450602081019050611b7c565b86831015611bbe5784890151611bba601f891682611ac7565b8355505b6001600288020188555050505b50505050505056fea264697066735822122012725315976f59b931b2603ff61107d7848a13a8f9dc6c657dbe43b7ff8dafdd64736f6c63430008110033",
  "immutableReferences": {},
  "source": "// SPDX-License-Identifier: MIT\r\npragma solidity >=0.4.22 <0.9.0;\r\n\r\ncontract Patient {\r\n    uint256 value;\r\n    uint256 c;\r\n    struct patient {\r\n        string name;\r\n        uint8 age;\r\n        string record_id;\r\n        address add;\r\n        uint8 height;\r\n        uint8 weight;\r\n    }\r\n\r\n    mapping(address => patient) patients;\r\n    mapping(address => string) CollectionId;\r\n    mapping(address=>mapping(address =>bool)) hasAccessToCollectionId;\r\n\r\n    function getCollectionId()\r\n        public\r\n        view\r\n        checkPatient(msg.sender)\r\n        returns (\r\n            string memory\r\n        )\r\n    {\r\n        return (CollectionId[msg.sender]);\r\n    }\r\n    event givePatientHistory(string collectionOfPatientHistory);\r\n    function giveCollectionIdAccess(address hos_id) public checkPatient(msg.sender)\r\n    {\r\n        hasAccessToCollectionId[msg.sender][hos_id]=true;\r\n        emit  givePatientHistory(CollectionId[msg.sender]);\r\n    }\r\n    function giveCollectionIdAccessForUpdate(address pat_id) public{\r\n        require(hasAccessToCollectionId[pat_id][msg.sender]==true);\r\n        emit  givePatientHistory(CollectionId[msg.sender]);\r\n    }\r\n    function hasAccess(address pat_id)public view returns (bool){\r\n           if(hasAccessToCollectionId[pat_id][msg.sender]==true)\r\n           {\r\n            return true;\r\n           }\r\n           else \r\n           {\r\n            return false;\r\n           }\r\n    }\r\n    modifier checkPatient(address id) {\r\n        patient memory p = patients[id];\r\n        require(p.add > address(0x0)); //check if patient exist\r\n        _;\r\n    }\r\n\r\n    function signupPatient(\r\n        string memory _name,\r\n        uint8 _age,\r\n        uint8 height,\r\n        uint8 weight,\r\n        string memory uKey\r\n        \r\n    ) public {\r\n        patient memory p = patients[msg.sender];\r\n        require(keccak256(abi.encodePacked(_name)) != keccak256(\"\"));\r\n        require((_age > 0) && (_age < 170));\r\n        require(!(p.add > address(0x0)));\r\n\r\n       CollectionId[msg.sender] = uKey;\r\n\r\n        patients[msg.sender] = patient({\r\n            height: height,\r\n            weight: weight,\r\n            name: _name,\r\n            age: _age,\r\n            add: msg.sender,\r\n            record_id: uKey\r\n        });\r\n    }\r\n\r\n   \r\n\r\n    function getPatientInfo()\r\n        public\r\n        view\r\n        checkPatient(msg.sender)\r\n        returns (\r\n            string memory,\r\n            address,\r\n            uint256,\r\n             string memory,\r\n            uint256,\r\n            uint256\r\n        )\r\n    {\r\n        patient memory p = patients[msg.sender];\r\n        return (p.name, p.add, p.age, p.record_id, p.height, p.weight);\r\n    }\r\n\r\n\r\n    function read() public view returns (uint256) {\r\n        return value;\r\n    }\r\n\r\n    function write(uint256 newValue) public {\r\n        value = newValue;\r\n    }\r\n}\r\n\r\n",
  "sourcePath": "D:\\StartFlutter\\flutter_application_1\\contracts\\Patient.sol",
  "compiler": {
    "name": "solc",
    "version": "0.8.17+commit.8df45f5f.Emscripten.clang"
  },
  "schemaVersion": "3.4.11",
  "updatedAt": "2023-01-11T17:44:17.189Z",
  "networkType": "ethereum",
  "devdoc": {
    "kind": "dev",
    "methods": {},
    "version": 1
  },
  "userdoc": {
    "kind": "user",
    "methods": {},
    "version": 1
  }
}